S013000052656E616C79785F444D312E737265630D
S214080000104B072031CF090029CF090029CF090056
S21408001029CF090029CF090029CF090000000000D0
S21408002000000000000000000000000029CF0900C2
S21408003029CF09000000000029CF0900598E0900C1
S21408004029CF090029CF090029CF090029CF09009F
S21408005029CF090029CF090029CF090029CF09008F
S214080060A18D090029CF09000000000069C7090012
S21408007081C7090099C70900B1C709000000000038
S2140800800000000029CF090029CF090029CF090060
S21408009029CF090029CF090029CF090029CF09004F
S2140800A029CF09000000000029CF0900DD8D0900CE
S2140800B041DE090029CF0900358E090029CF09003D
S2140800C029CF0900118E090029CF090029CF090078
S2140800D029CF090029CF090029CF090029CF09000F
S2140800E029CF090029CF090029CF0900997F0900DF
S2140800F029CF090010B5054C237833B9044B13B142
S2140801000448AFF300800123237010BD741707203E
S2140801100000000088AC0A00084B10B51BB108495F
S2140801200848AFF300800848036803B910BD074BBA
S214080130002BFBD0BDE81040184700BF00000000A9
S2140801407817072088AC0A0088AC0A000000000070
S21408015080B582B000AF78607B68072B31D801A2E3
S21408016052F823F0C1010800850108008D01080037
S214080170950108009D010800A5010800AD010800CA
S214080180B70108000020114B98471AE001200F4BD2
S214080190984716E000200E4B984712E010200C4BAC
S2140801A098470EE020200A4B98470AE03E21002098
S2140801B0084B984705E03E210120064B984700E08B
S2140801C000BF00BF0837BD4680BD00BF49C809004C
S2140801D0B5C8090055C9090080B582B000AF786077
S2140801E07B68072B26D801A252F823F00D020800D8
S2140801F01102080011020800230208002302080062
S214080200230208002302080023020800012312E044
S2140802100B4B98470346002B14BF01230023DBB281
S21408022009E0084B98470346002B14BF0123002318
S214080230DBB200E0002318460837BD4680BD00BF85
S21408024081C80900CDC9090080B483B000AF7860C2
S2140802507B68072B25D801A252F823F07D020800F8
S21408026083020800890208008F020800930208002B
S214080270970208009B0208009F0208004FF4FA4302
S21408028010E04FF400430DE04FF400430AE0084B3B
S21408029008E0084B06E0084B04E0074B02E0064B74
S2140802A000E0002318460C37BD4680BC704700BFE8
S2140802B000093D0000127A00001BB70080B582B026
S2140802C000AF0346FB7100BFFB791846054B9847FD
S2140802D0034683F00103DBB2002BF5D100BF0837D5
S2140802E0BD4680BDD901080080B586B000AFF8606D
S2140802F07A603B600B46FB727B68002B07D13B6835
S214080300002B04D1FB684FF470021A6019E0FB7AE0
S21408031018460E4B984702467B68B2FBF3F37B61A0
S2140803207B693A6802FB03F37B613B68013B1A046E
S214080330074B13407A68D2B2134343F47C52FB68E7
S2140803401A6000BF1837BD4680BD00BF49020800C6
S2140803500000FF0780B582B000AF786039603B6860
S214080360002B08D1094B9847094A7B681B6843F05D
S2140803700053936205E0064A7B681B6843F48033A3
S214080380D36100BF0837BD4680BD00BFE5C9090078
S21408039000060E4080B582B000AF78607B68002B00
S2140803A003D1054B9847034602E0044B984703469B
S2140803B018460837BD4680BDFDC9090015CA09009C
S2140803C080B582B000AF0346FB71FB79033B042B74
S2140803D008D8FB791846064B9847FB791846054B0C
S2140803E0984700E000BF00BF0837BD4680BD00BF85
S2140803F051010800BD02080080B582B000AF7860E1
S21408040000BF7868044B98470346002BF9D00023B2
S21408041018460837BD4680BD9503080080B500AF6E
S2140804200620044B984702461346DB009B1A5B00DF
S214080430184680BD4902080080B500AF024B9847B1
S21408044003465B08184680BD1D04080090B583B0B7
S21408045000AF104B9847034618460F4B98470620A0
S2140804600E4B9847381D0E23012206210C4CA04738
S2140804703B1D002118460B4B984700200A4B98470F
S21408048010200A4B98470A4B984700BF0C37BD46C2
S21408049090BD00BF390408005DD10900C1030800FB
S2140804A0E902080055030800F9030800C9C709004F
S2140804B0D9CF090080B584B000AFF860B9607A601B
S2140804C07B681B0203F47062BB6813431946F8681E
S2140804D0034B9847002318461037BD4680BD00BF1B
S2140804E0B500072080B584B000AF786039607B68B7
S2140804F01B6823F47063FB603B681B0203F470629E
S214080500FB68134319467868024B984700BF1037B4
S214080510BD4680BDB500072080B483B000AF7860C4
S2140805207B681B6803F470631B0A18460C37BD46C5
S21408053080BC704780B586B000AFF860B9607A6056
S214080540BB680E2B02D0BB680F2B02D14FF0FF33CF
S21408055020E0FB68114A934214BF01230023DBB254
S2140805607B610F4B1B681A460E4B1A600D4B1A68B8
S2140805707B681B0223F07F4323F0FF03B968C9B2E8
S2140805800B4343F0B443194678699047FB689B6869
S21408059003F0060318461837BD4680BD000A0E400D
S2140805A0080010009017072080B483B000AF78606A
S2140805B07B68DB6818460C37BD4680BC704700BFB2
S2140805C080B582B000AF78607868034B984700BF64
S2140805D00837BD4680BD00BF2DCA090080B582B069
S2140805E000AF78607B68054A934202D11820044B16
S2140805F0984700BF0837BD4680BD00BF0080004052
S214080600C105080080B483B000AF78607B68082214
S2140806101A607B6820221A607B6804221A6000BF72
S2140806200C37BD4680BC704780B584B000AF786094
S21408063039600023FB607B684FF0FF329A627B6864
S2140806401B6A78680E4B984778680E4B98473B6845
S21408065059683B681B681A4678680B4B98470346E8
S214080660012B01D10123FB603B685B7A012B02D189
S2140806707B6840221A60FB6818461037BD4680BD66
S21408068005070800050608008D06080080B487B030
S21408069000AFF860B9607A6000237B61BB68174AD0
S2140806A0934201D9012324E0BB685B007A68B2FB59
S2140806B0F3F3043B3B6105E07B6901337B613B69EF
S2140806C05B083B613B69FF2B02D97B69062BF3D994
S2140806D00B4A3B6913603B69DAB23B691B029BB263
S2140806E01A437B691B0403F4E0231A43FB681A6168
S2140806F0002318461C37BD4680BC7047801A060083
S2140807009417072080B483B000AF78607B68802297
S2140807101A607B681B6B00BF0C37BD4680BC7047F1
S21408072080B487B000AFF860B9607A603B60BB6899
S214080730B3F5402F0BD3174B7B61BB68A3F540235B
S2140807401B0A7B82BB689BB2DBB23B820AE0124B79
S2140807507B61BB68A3F500231B0A7B82BB689BB240
S214080760DBB23B82FB68002B02D0FB687A691A6012
S2140807707B68002B02D07B687A8A1A803B68002B3D
S21408078002D03B683A8A1A8000BF1C37BD4680BC38
S214080790704700BF000C0E40000A0E4080B487B0B9
S2140807A000AFF8607B600B467B8113463B81FB6895
S2140807B00D4A934206D17B8903F500631A023B89EA
S2140807C0134405E07B8903F540631A023B8913440A
S2140807D07B617B68002B02D07B687A691A6000BF51
S2140807E01C37BD4680BC7047000A0E4080B487B0F0
S2140807F000AFF860B9607A603B60FB6823F47F530B
S21408080023F03F037B61BB6823F47F5323F03F0349
S21408081003F57F533F333B617B68002B02D07B6830
S2140808207A691A603B68002B02D03B683A691A60FE
S21408083000BF1C37BD4680BC704700BF80B582B07D
S21408084000AF786039603A6879680648064B98477A
S2140808503A6879680548044B9847002318460837CD
S214080860BD4680BD000A0E40B5040800000C0E40C8
S21408087090B58FB000AFF860B9607A603B604A4BBD
S214080880BB6207F1140307F1160207F11800F968AE
S214080890464CA047BB691846454B98477862BB69E3
S2140808A006211846434B984771E0BB8AC3F5807209
S2140808B07B68934228BF13463B62B869F98A07F1FA
S2140808C0100300223C4CA047BB8A5B429AB23B6AA4
S2140808D09BB2D31A9BB203F58073FB833B69194618
S2140808E0BB8A1A46B86A354B9847BB8A1A46BB6A0B
S2140808F013443A6AB9681846304B9847BB8A1A4672
S2140809003B6A1344BA6AD018BB8A1A463B691A442B
S2140809103B6A13441946FB8B1A46284B98473B6993
S214080920FB6200233B630AE0FB6A1A1DFA621E4953
S2140809303A6B51F822201A603B6B01333B633B6BE2
S2140809403F2BF1D93B68002B07D0BB69FA8A0321F5
S21408095018461B4B9847786306E0BB69FA8A01215C
S2140809601846174B984778637B6B002B01D07B6B38
S21408097016E0BA683B6A1344BB607A683B6AD31AC7
S2140809807B60FB8A01339BB2FB820023BB827B68B9
S214080990002B8AD1BB69796A1846064B984700230C
S2140809A018463C37BD4690BD981707202107080013
S2140809B019050800E50408009D0708000D8C0A00C4
S2140809C03505080090B58BB000AFF860B9607A605E
S2140809D03B604023FB8407F1140307F11802B9684B
S2140809E0F8681C4CA0477B68002B02D0BA697B6865
S2140809F01A603B68002B02D07A693B681A60B969AE
S214080A0007F1120207F11C000023134CA04779696E
S214080A1007F11002002300200F4CA04710E0FB69E6
S214080A207A8A082118460D4B984738623B6A002B8D
S214080A3001D03B6A09E07A8AFB8C13449BB27B821E
S214080A407A8A3B8A9A42EAD3002318462C37BD4650
S214080A5090BD00BFED07080021070800350508000F
S214080A6090B58BB000AFF860B9607A603B60402301
S214080A70FB8407F1140307F11802B968F8681C4CE0
S214080A80A0477B68002B02D0BA697B681A603B686F
S214080A90002B02D07A693B681A60B96907F112021E
S214080AA007F11C000023134CA047796907F11002D0
S214080AB0002300200F4CA04710E0FB697A8A092122
S214080AC018460D4B984738623B6A002B01D03B6AA4
S214080AD009E07A8AFB8C13449BB27B827A8A3B8A2B
S214080AE09A42EAD3002318462C37BD4690BD00BF6D
S214080AF0ED070800210708003505080080B582B014
S214080B0000AF78607B68022B01D9112312E0786861
S214080B100A4B98470346012B01D100230AE07A685E
S214080B200B210748074B98470346002B01D10023A3
S214080B3000E0102318460837BD4680BD490B08005C
S214080B40000A0E403505080080B584B000AF78600E
S214080B507B68022B01D9112319E000220D210E48CB
S214080B600E4B98470346002B01D010230FE00A4887
S214080B700B4B9847F86001227B6802FA03F31A4683
S214080B80FB681340002B01D0012300E00023184621
S214080B901037BD4680BD00BF000A0E403505080068
S214080BA0A905080080B500AF0020024B9847034609
S214080BB0184680BDFD0A080080B582B000AF124B0B
S214080BC000221A600423FB71104B98470346FB71FA
S214080BD0FB79002B01D00E4B98470E4B98470346DF
S214080BE0FB71FB79002B01D0094B98470A4B9847B5
S214080BF00346FB71FB79002B01D0054B9847002371
S214080C0018460837BD4680BDD81807201D0C0800B2
S214080C10858E0800E51809002514090080B400AF81
S214080C203E4B14221A803D4B91225A803B4B0022A1
S214080C309A803A4B42F21072DA80384B384A9A60F9
S214080C40364B384ADA60354B354A1A61334B354AE3
S214080C505A61324B344A9A61304B344ADA612F4B28
S214080C60314A1A622D4B324A5A622C4B314A9A62E2
S214080C702A4B2F4ADA62294B2F4A9A63274B2F4A68
S214080C80DA63264B2E4A1A64244B2E4A5A64234BA0
S214080C902D4A9A64214B2D4ADA64204B2C4A1A6551
S214080CA01E4B42F21072A3F854201C4B0022A3F8E5
S214080CB056201A4B42F21072A3F85820174B0022FF
S214080CC0A3F85A20154B42F21072A3F85C20134B77
S214080CD00022A3F85E20114B0522A3F860200F4BD4
S214080CE01422A3F862200D4B1E22A3F864200B4B97
S214080CF00522A3F86620094B1E22A3F86820074B96
S214080D000522A3F86A20054B124A5A63034B124A77
S214080D101A6300231846BD4680BC70470C2307207C
S214080D200080BB4400002F440000C843000048C3AE
S214080D30000096C300007A440000B94300006643EA
S214080D400000A0420000C8410080BB430080B643B4
S214080D5000003442000016440000AF4490B585B049
S214080D6000AF0423FB730023BB8100237B81002391
S214080D703B810023FB8007F10C0319461220634BC6
S214080D809847BA89624B104698470246614B6249B3
S214080D901046984703461A46604B1A6007F10C033C
S214080DA019461320594B9847BA89594B1046984705
S214080DB00246584B58491046984703461A46584B19
S214080DC01A6007F10C0319461420504B9847BA8945
S214080DD04F4B1046984702464E4B4F491046984789
S214080DE003461A464F4B1A6007F10C0319460720AC
S214080DF0464B9847BA89464B104698470246454B95
S214080E0045491046984703461A46474B1A6007F165
S214080E100C0319460B203D4B9847BA893C4B1046A5
S214080E2098470246414B42491046984703461A4699
S214080E30404B1A6007F10C0319460C20334B9847B1
S214080E40BA89334B104698470246384B38491046FD
S214080E50984703461A46384B1A6007F10A0319469C
S214080E600E202A4B98477B89A3F57A72334B104697
S214080E7098470246324B1A6007F1080319460F20B6
S214080E80224B98473B89A3F57A722C4B1046984715
S214080E9002462C4B1A60BB1D194610201B4B984760
S214080EA0FB88A3F57A72254B104698470246264BD0
S214080EB01A60204B1A68204B1968244B104698472E
S214080EC003461C461E4B1A681E4B19681F4B1046D5
S214080ED0984703461A46154B114620469847034638
S214080EE01A460C4B4FF080411046984703461A4660
S214080EF00E4B17491046984703461A46154B1A6074
S214080F0000BF18461437BD4690BD00BF3D03090014
S214080F10F5860A000D890A0000002041C41807203B
S214080F20C8180720CC180720D018072091850A0073
S214080F3000007A4404230720B4180720FD860A0018
S214080F40B8180720BC180720C018072095850A007F
S214080F500000C841B018072080B582B000AFAE4B7D
S214080F6098470346FB71FB79002B01D0AB4B98479B
S214080F70AB4B93F8DE31002B59D0AA4BB3F8603050
S214080F80002B35D0A84B1B680133A74A1360A64B25
S214080F9000221A60A24B012283F8D221A34B1B78A9
S214080FA0A24A0133DB0013441D229A809C4B93F817
S214080FB0DD310133DAB29A4B83F8DD219C4B0122EE
S214080FC01A709C4B1D221A70984B1B781A46974B22
S214080FD013442E229A70984B98470346FB71FB7968
S214080FE0002B01D08D4B9847944B01221A601EE0C7
S214080FF08B4B042283F8D221904B1B68012B13D10C
S2140810003B1D00210A461A800A469A7002233B7145
S21408101001237B718A4B4F221A70894B1B78391D26
S21408102003221846874B9847844B00221A607C4B4D
S21408103093F89E32002B4CD0794B93F89132012BC3
S21408104004D1784B93F85330002B09D1744B93F89E
S2140810509132002B34D1734B93F85330002B2FD199
S2140810606F4B93F89232012B32D06D4B012283F8E6
S21408107092226E4B1B786D4A0133DB0013442922FB
S2140810809A80674B93F89D320133DAB2644B83F843
S2140810909D22674B01221A70664B29221A70634BF1
S2140810A01B781A46614B13442E229A70624B984757
S2140810B00346FB71FB79002B0AD0584B984707E08C
S2140810C0574B042283F89222594B00221A7000E0EC
S2140810D000BF534B93F8AE32002B4CD0504B93F8CE
S2140810E0A132012B04D14F4B93F85330002B09D172
S2140810F04B4B93F8A132002B34D14A4B93F853301C
S214081100002B2FD1464B93F8A232012B32D0444BFA
S214081110012283F8A222454B1B78444A0133DB00A0
S214081120134429229A803E4B93F8AD320133DAB243
S2140811303B4B83F8AD223E4B01221A703D4B2A22C8
S2140811401A703A4B1B781A46384B13442E229A705C
S214081150394B98470346FB71FB79002B0AD02F4B77
S214081160984707E02E4B042283F89222304B002241
S2140811701A7000E000BF2A4B93F8BE32002B64D0EA
S214081180274B93F8B132012B04D1264B93F85430F1
S214081190002B09D1224B93F8B132002B34D1214BC6
S2140811A093F85430002B2FD11D4B93F8B232012BF5
S2140811B04AD01B4B012283F8B2221C4B1B781B4AD1
S2140811C00133DB0013442B229A80154B93F8BD326B
S2140811D00133DAB2124B83F8BD22154B01221A707E
S2140811E0144B2B221A70114B1B781A460F4B1344BC
S2140811F02E229A70104B98470346FB71FB79002BFA
S21408120022D0064B98471FE0054B042283F8B222EB
S214081210074B00221A7018E05D0D0800858E08003E
S214081220341E072048240720D8180720F82407204B
S214081230A9180720082307202D2E0800D4180720F1
S2140812400401072079D6090000BFA94B93F8CE32CF
S214081250002B4CD0A64B93F8C132012B04D1A54BDA
S21408126093F85430002B09D1A14B93F8C132002BC8
S21408127034D1A04B93F85430002B2FD19C4B93F8C5
S214081280C232012B32D09A4B012283F8C2229A4BE3
S2140812901B78994A0133DB0013442C229A80944B1E
S2140812A093F8CD320133DAB2914B83F8CD22934BC3
S2140812B001221A70924B2C221A708F4B1B781A46F2
S2140812C08D4B13442E229A708E4B98470346FB711B
S2140812D0FB79002B0AD08C4B984707E0844B0422F6
S2140812E083F8C222854B00221A7000E000BF804BAC
S2140812F093F80E32002B35D07E4B1B8B002B2AD052
S2140813007B4B012283F802227B4B1B787A4A0133F7
S214081310DB00134420229A80754B93F80D32013374
S214081320DAB2734B83F80D22744B01221A70744B91
S21408133020221A70704B1B781A466F4B13442E22C5
S2140813409A70704B98470346FB71FB79002B09D0BF
S2140813506D4B984706E0664B042283F80222674BDB
S21408136000221A70624B93F84E34002B40D0604B24
S21408137093F84234012B2FD05E4BB3F86230642BBF
S21408138036D95B4B012283F842245B4B1B785A4ABA
S2140813900133DB00134444229A80554B93F84D34AE
S2140813A00133DAB2524B83F84D24544B01221A709B
S2140813B0534B44221A70504B1B781A464E4B134414
S2140813C02E229A704F4B98470346FB71FB79002BE9
S2140813D00ED04D4B98470BE0454B93F84234012B03
S2140813E006D1434B042283F84224444B00221A7049
S2140813F03F4B93F83E34002B40D03D4B93F83234A5
S214081400012B2FD03B4BB3F86230012B36D8384B24
S214081410012283F83224384B1B78374A0133DB0025
S214081420134443229A80324B93F83D340133DAB2A0
S2140814302F4B83F83D24314B01221A70304B432240
S2140814401A702D4B1B781A462B4B13442E229A7073
S2140814502C4B98470346FB71FB79002B0ED02A4B82
S21408146098470BE0224B93F83234012B06D1204BD9
S214081470042283F83224214B00221A701C4B93F85E
S2140814805E34002B4ED01A4B93F85234012B3DD0C5
S214081490184BB3F86430012B44D8154B012283F857
S2140814A05224154B1B78144A0133DB00134445229B
S2140814B09A800F4B93F85D340133DAB20C4B83F8FD
S2140814C05D240E4B01221A700D4B45221A700A4BEA
S2140814D01B781A46084B13442E229A70094B9847D5
S2140814E00346FB71FB79002B1CD0074B984719E085
S2140814F0341E072048240720F8240720A9180720A8
S214081500082307202D2E0800858E0800864B93F8A2
S2140815105234012B06D1844B042283F85224834B81
S21408152000221A70804B93F86E34002B40D07E4B06
S21408153093F86234012B2FD07D4BB3F86430642BBC
S21408154036D9794B012283F862247A4B1B78794A7C
S2140815500133DB00134446229A80734B93F86D34AC
S2140815600133DAB2704B83F86D24704B01221A707F
S214081570714B46221A706F4B1B781A466D4B1344F4
S2140815802E229A706D4B98470346FB71FB79002B09
S2140815900ED06B4B98470BE0634B93F86234012BE5
S2140815A006D1614B042283F86224604B00221A702D
S2140815B05D4B93F81E32002B35D05D4B5B8B002BB2
S2140815C02AD0594B012283F812225A4B1B78594AC3
S2140815D00133DB00134421229A80534B93F81D32C3
S2140815E00133DAB2504B83F81D22504B01221A7091
S2140815F0514B21221A704F4B1B781A464D4B1344F9
S2140816002E229A704D4B98470346FB71FB79002BA8
S21408161009D04B4B984706E0434B042283F8122226
S214081620424B00221A70404B93F82E32002B36D0CD
S2140816303F4BB3F84C30002B2AD03B4B012283F8A3
S21408164022223C4B1B783B4A0133DB001344222200
S2140816509A80354B93F82D320133DAB2324B83F841
S2140816602D22324B01221A70334B22221A70314B2C
S2140816701B781A462F4B13442E229A702F4B9847E6
S2140816800346FB71FB79002B09D02D4B984706E0E3
S214081690254B042283F82222244B00221A70224B60
S2140816A093F81E34002B63D01F4B93F81234012B8B
S2140816B052D0244B1A6B244B2449104698470346AD
S2140816C01846234B1A68234B114698470346002BA7
S2140816D04ED0154B012283F81224164B1B78154A58
S2140816E00133DB00134441229A800F4B93F81D34D4
S2140816F00133DAB20C4B83F81D240C4B01221A7006
S2140817000D4B41221A700B4B1B781A46094B134493
S2140817102E229A70094B98470346FB71FB79002BDB
S21408172026D0074B984723E0341E0720A918072021
S21408173048240720F8240720082307202D2E080011
S214081740858E08000C23072091850A0000007A443D
S214081750B0180720E18A0A009F4B93F81234012B31
S21408176006D19D4B042283F812249C4B00221A7043
S214081770994B93F82E34002B4BD0974B93F8223482
S214081780012B3AD0964B5A6B964B9749104698477A
S21408179003461846954B1A68954B114698470346D4
S2140817A0002B36D08C4B012283F82224914B1B78D1
S2140817B0904A0133DB00134442229A80864B93F802
S2140817C02D340133DAB2844B83F82D24834B01225F
S2140817D01A70894B42221A70864B1B781A46854B1C
S2140817E013442E229A70854B98470346FB71FB7963
S2140817F0002B0ED0824B98470BE0774B93F8223499
S214081800012B06D1744B042283F82224734B002242
S2140818101A70714B93F84E32002B46D0704B9A686C
S214081820704B71491046984703461846754B1A6818
S214081830754B114698470346002B2AD0664B012263
S21408184083F842226B4B1B786A4A0133DB00134449
S21408185024229A80604B93F84D320133DAB25E4BFD
S21408186083F84D225D4B01221A70634B24221A70AE
S214081870604B1B781A465F4B13442E229A705F4BB8
S21408188098470346FB71FB79002B0ED05C4B9847B4
S2140818900BE0514B93F84232012B06D14E4B0422F3
S2140818A083F842224D4B00221A704B4B93F83E3277
S2140818B0002B46D04A4BDA684A4B4B4910469847A5
S2140818C0034618464F4B1A68494B11469847034635
S2140818D0002B2AD0404B012283F83222454B1B7836
S2140818E0444A0133DB00134423229A803A4B93F888
S2140818F03D320133DAB2384B83F83D22374B0122AA
S2140819001A703D4B23221A703A4B1B781A46394BED
S21408191013442E229A70394B98470346FB71FB797D
S214081920002B0ED0364B98470BE02B4B93F83232F1
S214081930012B06D1284B042283F83222274B00229B
S2140819401A70254B93F86E32002B71D007222F4958
S21408195018202F4B9847FB79002B01D0284B984727
S2140819601F4B1A691F4B20491046984703461846CE
S214081970284B1A68244B114698470346002B4BD031
S214081980154B012283F862221A4B1B78194A013339
S214081990DB00134426229A800F4B93F86D320133EE
S2140819A0DAB20D4B83F86D220C4B01221A70124BDB
S2140819B026221A700F4B1B781A460E4B13442E22FB
S2140819C09A700E4B98470346FB71FB79002B2FD075
S2140819D00B4B98472CE000BF341E0720A918072099
S2140819E00C23072091850A0000007A44B0180720C7
S2140819F01D8B0A00F8240720082307202D2E080030
S214081A00858E080004230720E18A0A0068A70A00D2
S214081A1079D60900B41807209B4B93F86232012B3D
S214081A2006D1994B042283F86222984B00221A703A
S214081A30954B93F85E32002B46D0954B5A69954BDA
S214081A4095491046984703461846944B1A68944B8F
S214081A50114698470346002B2AD08B4B012283F861
S214081A605222904B1B788F4A0133DB001344252201
S214081A709A80854B93F85D320133DAB2824B83F84D
S214081A805D22824B01221A70874B26221A70854BDC
S214081A901B781A46834B13442E229A70834B98471A
S214081AA00346FB71FB79002B0ED0814B98470BE061
S214081AB0754B93F85232012B06D1734B042283F8E8
S214081AC05222724B00221A706F4B9B7F002B46D017
S214081AD06D4B5B7C012B03D1764B1B78002B0AD110
S214081AE0694B5B7C002B32D1724B1B7883F0010369
S214081AF0DBB2002B2BD0644B9B7C012B2ED0624B89
S214081B0001229A74674B1B78664A0133DB0013443C
S214081B1001229A805C4B5B7F0133DAB25A4B5A77C4
S214081B205A4B01221A70604B01221A705D4B1B78C3
S214081B301A465C4B13442E229A705C4B9847034611
S214081B40FB71FB79002B09D0594B984706E04E4BA2
S214081B5004229A744D4B00221A7000E000BF4A4BCC
S214081B6093F83E30002B48D0474B93F83130012B82
S214081B7004D1504B93F84E30002B0CD1424B93F8BF
S214081B803130002B32D14B4B93F84E3083F00103A3
S214081B90DBB2002B2AD03C4B012283F83220414B83
S214081BA01B78404A0133DB00134403229A80364BE5
S214081BB093F83D300133DAB2334B83F83D20334B8C
S214081BC001221A70384B03221A70364B1B781A46B5
S214081BD0344B13442E229A70344B98470346FB71B5
S214081BE0FB79002B09D0324B984706E0264B042297
S214081BF083F83220254B00221A70234B93F85E3068
S214081C00002B60D0204B93F85130012B04D1294B80
S214081C1093F84E30002B0CD11B4B93F85130002B09
S214081C204AD1244B93F84E3083F00103DBB2002BE5
S214081C3042D0154B012283F852201A4B1B78194ABA
S214081C400133DB00134403229A800F4B93F85D3070
S214081C500133DAB20C4B83F85D200C4B01221A7064
S214081C60114B05221A700F4B1B781A460D4B13445E
S214081C702E229A700D4B98470346FB71FB79002B72
S214081C8021D00B4B98471EE0341E0720A9180720C2
S214081C900C23072091850A0000007A44B418072010
S214081CA01D8B0A00F8240720082307202D2E08007D
S214081CB0858E0800482407208F4B042283F852207C
S214081CC08E4B00221A708C4B93F84E30002B48D05F
S214081CD0894B93F84130012B04D1894B93F84F3048
S214081CE0002B0CD1844B93F84130002B32D1844B17
S214081CF093F84F3083F00103DBB2002B2AD07E4BDB
S214081D00012283F842207F4B1B787E4A0133DB0092
S214081D10134404229A80784B93F84D300133DAB294
S214081D20754B83F84D20754B01221A70764B0422AA
S214081D301A70744B1B781A46724B13442E229A70EC
S214081D40724B98470346FB71FB79002B09D0704B02
S214081D50984706E0684B042283F84220674B002227
S214081D601A70654B93F86E30002B48D0624B93F888
S214081D706130012B04D1624B93F84F30002B0CD105
S214081D805D4B93F86130002B32D15D4B93F84F30A2
S214081D9083F00103DBB2002B2AD0574B012283F8CD
S214081DA06220584B1B78574A0133DB00134406223F
S214081DB09A80514B93F86D300133DAB24E4B83F864
S214081DC06D204E4B01221A704F4B06221A704D4B4F
S214081DD01B781A464B4B13442E229A704B4B984747
S214081DE00346FB71FB79002B09D0494B984706E060
S214081DF0414B042283F86220404B00221A703E4B67
S214081E0093F8DE33002B3FD03D4B93F84830002B39
S214081E1004D0394B93F8D133012B0CD0384B93F8B8
S214081E20483083F00103DBB2002B2DD0324B93F8F9
S214081E30D133002B28D1304B93F8D233012B19D04D
S214081E402D4B022283F8E2232B4B012283F8D22360
S214081E502C4B1B782B4A0133DB0013443D229A8017
S214081E60264B01221A70284B3D221A70294B012254
S214081E701A7006E0204B002283F8DD231F4B002251
S214081E801A70254B00221A701B4B93F8EE33002B62
S214081E904ED01B4B93F84830002B04D0164B93F8C3
S214081EA0E133012B0CD0164B93F8483083F001032E
S214081EB0DBB2002B3CD0104B93F8E133002B37D124
S214081EC00D4B93F8E233012B28D00B4B93F8EE33E7
S214081ED0002B2AD0084B022283F8D223064B012275
S214081EE083F8E223054B01221A70074B3E221A702C
S214081EF0084B02221A7018E0341E0720A91807207B
S214081F0048240720F8240720082307202D2E080039
S214081F10858E0800F81B072000010720A24B002228
S214081F2083F8ED23A14B00221A70A14B01221A70E8
S214081F309D4B93F85E31002B4CD09B4B93F8523157
S214081F40012B3BD0984BD3F854219A4B9A4910460C
S214081F50984703461846994B1A68994B114698476E
S214081F600346002B36D0904B012283F85221954B1E
S214081F701B78944A0133DB00134415229A808A4B57
S214081F8093F85D310133DAB2874B83F85D21874BCE
S214081F9001221A708C4B15221A708A4B1B781A4627
S214081FA0884B13442E229A70884B98470346FB7139
S214081FB0FB79002B0ED0864B98470BE07A4B93F8AC
S214081FC05231012B06D1784B042283F85221774BE5
S214081FD000221A70744B93F86E31002B4CD0724B5B
S214081FE093F86231012B3BD06F4BD3F86821714BC5
S214081FF071491046984703461846704B1A68754B41
S214082000114698470346002B36D0674B012283F8C3
S21408201062216C4B1B786B4A0133DB001344162293
S2140820209A80614B93F86D310133DAB25E4B83F8D0
S2140820306D215E4B01221A70634B16221A70614B93
S2140820401B781A465F4B13442E229A705F4B9847AC
S2140820500346FB71FB79002B0ED05D4B98470BE0CF
S214082060514B93F86231012B06D14F4B042283F86B
S21408207062214E4B00221A704B4B93F87E31002B90
S2140820804CD0494B93F87231012B3BD0464BD3F8D2
S2140820907421484B484910469847034618464E4B05
S2140820A01A68474B114698470346002B36D03E4BD6
S2140820B0012283F87221434B1B78424A0133DB0026
S2140820C0134417229A80384B93F87D310133DAB2DD
S2140820D0354B83F87D21354B01221A703A4B17226F
S2140820E01A70384B1B781A46364B13442E229A70B1
S2140820F0364B98470346FB71FB79002B0ED0344BC2
S21408210098470BE0284B93F87231012B06D1264BE3
S214082110042283F87221254B00221A70224B93F86A
S2140821208E31002B66D0204B93F88231012B55D088
S2140821301D4BD3F888211F4B1F4910469847034666
S2140821401846254B1A68234B114698470346002B1A
S21408215050D0154B012283F882211A4B1B78194A56
S2140821600133DB00134418229A800F4B93F88D3105
S2140821700133DAB20C4B83F88D210C4B01221A700E
S214082180114B18221A700F4B1B781A460D4B134426
S2140821902E229A700D4B98470346FB71FB79002B4D
S2140821A028D00B4B984725E0341E0720A91807208F
S2140821B00001072091850A0000007A44B818072015
S2140821C0E18A0A00F8240720082307202D2E080095
S2140821D0858E08001D8B0A00BC1807209B4B93F8B9
S2140821E08231012B06D1994B042283F88221984B21
S2140821F000221A70954B93F87E32002B4CD0934BE6
S214082200D3F87422934B94491046984703461846C9
S214082210924B1A68924B114698470346002B2FD0CC
S2140822208A4B93F87232012B2AD0884B012283F806
S21408223072228C4B1B788B4A0133DB00134427220F
S2140822409A80824B93F87D320133DAB27F4B83F85B
S2140822507D227F4B01221A70834B27221A70814BEE
S2140822601B781A467F4B13442E229A707F4B98474A
S2140822700346FB71FB79002B0ED07D4B98470BE08D
S214082280724B93F87232012B06D1704B042283F8F6
S21408229072226F4B00221A706C4B93F88E32002B0A
S2140822A04BD0744BDA6A6B4B6B491046984703461B
S2140822B018466A4B1A68704B114698470346002B17
S2140822C02FD0624B93F88232012B2AD05F4B012223
S2140822D083F88222634B1B78624A0133DB0013447F
S2140822E028229A80594B93F88D320133DAB2574B2D
S2140822F083F88D22564B01221A705B4B28221A70DF
S214082300584B1B781A46574B13442E229A70574B35
S21408231098470346FB71FB79002B0ED0544B984721
S2140823200BE04A4B93F88232012B06D1474B042226
S21408233083F88222464B00221A70444B93F8DE300C
S214082340002B46D04D4B1B78002B32D04B4B00222F
S2140823501A703E4B93F8D230012B3AD03B4B0122F1
S21408236083F8D2203F4B1B783E4A0133DB001344E8
S2140823700D229A80354B93F8DD300133DAB2334BB1
S21408238083F8DD20324B01221A70374B0D221A7063
S214082390344B1B781A46334B13442E229A70334B11
S2140823A098470346FB71FB79002B12D0304B9847B1
S2140823B00FE0264B93F8D230012B0AD1234B042288
S2140823C083F8D220214B002283F8DD20204B002200
S2140823D01A701E4B93F8CE30002B63D0284B1B7810
S2140823E0002B4FD0264B00221A70184B93F8C23099
S2140823F0012B57D0154B012283F8C220194B1B78A6
S214082400184A0133DB0013440C229A800F4B93F8CA
S214082410CD300133DAB20D4B83F8CD200C4B0122B8
S2140824201A70114B0C221A700E4B1B781A460D4B5D
S21408243013442E229A700D4B98470346FB71FB797E
S214082440002B2FD00A4B98472CE000BF341E0720DD
S214082450A918072091850A0000007A44C0180720AA
S214082460E18A0A00F8240720082307202D2E0800F2
S214082470858E08000C2307201D8B0A00C51B072025
S214082480C41B07209D4B93F8C230012B0AD19B4BE7
S214082490042283F8C220994B002283F8CD20984B5B
S2140824A000221A70954B93F8EE30002B46D0954BC9
S2140824B01B78002B32D0934B00221A708F4B93F860
S2140824C0E230012B3AD08D4B012283F8E2208E4B66
S2140824D01B788D4A0133DB0013440E229A80874B03
S2140824E093F8ED300133DAB2844B83F8ED20844B51
S2140824F001221A70854B0E221A70834B1B781A46D7
S214082500814B13442E229A70814B98470346FB71E1
S214082510FB79002B12D07F4B98470FE0774B93F848
S214082520E230012B0AD1754B042283F8E220734B64
S214082530002283F8ED20724B00221A706F4B93F836
S214082540FE30002B4AD06D4BD3F8F420724B196836
S214082550724B104698470346002B2FD0674B93F8CC
S214082560F230012B3AD0654B012283F8F220664BF5
S2140825701B78654A0133DB0013440F229A805F4BB1
S21408258093F8FD300133DAB25C4B83F8FD205C4BE0
S21408259001221A705D4B0F221A705B4B1B781A4685
S2140825A0594B13442E229A70594B98470346FB7191
S2140825B0FB79002B12D0574B98470FE04F4B93F8F8
S2140825C0F230012B0AD14D4B042283F8F2204B4BF4
S2140825D0002283F8FD204A4B00221A70474B93F8D6
S2140825E00E31002B4AD0454BD3F808214A4B1968C0
S2140825F04B4B104698470346002B2FD03F4B93F87B
S2140826000231012B3AD03D4B012283F802213E4B82
S2140826101B783D4A0133DB00134410229A80374B5F
S21408262093F80D310133DAB2344B83F80D21344B6D
S21408263001221A70354B10221A70334B1B781A4633
S214082640314B13442E229A70314B98470346FB7140
S214082650FB79002B12D02F4B98470FE0274B93F8A7
S2140826600231012B0AD1254B042283F80221234B81
S214082670002283F80D21224B00221A701F4B93F874
S2140826803E31002B62D0274B9A6C274B1968234B98
S214082690104698470346002B48D0184B93F832311B
S2140826A0012B53D0154B012283F83221164B1B7889
S2140826B0154A0133DB00134413229A800F4B93F814
S2140826C03D310133DAB20D4B83F83D210C4B012224
S2140826D01A700E4B13221A700B4B1B781A460A4BAD
S2140826E013442E229A700A4B98470346FB71FB79CF
S2140826F0002B2BD0074B984728E000BF341E072036
S214082700A9180720C61B0720F82407200823072037
S2140827102D2E0800858E0800C4180720E18A0A00B6
S2140827201D8B0A000C230720CC1807209E4B93F815
S2140827303231012B0AD19C4B042283F832219A4B62
S214082740002283F83D21994B00221A70964B93F885
S2140827504E31002B49D0964BDA6C964B1968964B3F
S214082760104698470346002B2FD08F4B93F84231DC
S214082770012B3AD08C4B012283F842218F4B1B78D1
S2140827808E4A0133DB00134414229A80864B93F852
S2140827904D310133DAB2844B83F84D21834B012245
S2140827A01A70874B14221A70844B1B781A46834B70
S2140827B013442E229A70834B98470346FB71FB7985
S2140827C0002B12D0804B98470FE0774B93F8423196
S2140827D0012B0AD1744B042283F84221724B002243
S2140827E083F84D21714B00221A706F4B93F81E31F7
S2140827F0002B4AD06C4BD3F81421744B1968744BD1
S214082800104698470346002B2FD0674B93F8123193
S214082810012B3AD0644B012283F81221674B1B78B0
S214082820664A0133DB00134411229A805E4B93F804
S2140828301D310133DAB25C4B83F81D215B4B012254
S2140828401A705F4B11221A705C4B1B781A465B4B4A
S21408285013442E229A705B4B98470346FB71FB790C
S214082860002B12D0584B98470FE04F4B93F8123175
S214082870012B0AD14C4B042283F812214A4B002222
S21408288083F81D21494B00221A70474B93F82E31C6
S214082890002B4AD0444BD3F828214C4B1968464B9A
S2140828A0104698470346002B2FD03F4B93F822310B
S2140828B0012B3AD03C4B012283F822213F4B1B7850
S2140828C03E4A0133DB00134412229A80364B93F8B3
S2140828D02D310133DAB2344B83F82D21334B0122E4
S2140828E01A70374B12221A70344B1B781A46334B21
S2140828F013442E229A70334B98470346FB71FB7994
S214082900002B12D0304B98470FE0274B93F8223114
S214082910012B0AD1244B042283F82221224B0022C1
S21408292083F82D21214B00221A701F4B93F88E3006
S214082930002B63D01E4BB3F90220264B104698474F
S214082940254B1A68224B114698470346002B45D05C
S214082950154B012283F88220184B1B78174A01333F
S214082960DB00134408229A800F4B93F88D3001330E
S214082970DAB20D4B83F88D200C4B01221A70104BDF
S21408298008221A700D4B1B781A460C4B13442E223D
S2140829909A700C4B98470346FB71FB79002B2DD099
S2140829A0094B98472AE000BF341E0720A9180720BD
S2140829B00C230720CC1807201D8B0A00F8240720B4
S2140829C0082307202D2E0800858E0800C818072023
S2140829D0E18A0A00FD860A00D0180720A94B93F85A
S2140829E08230012B0AD1A74B042283F88220A54BFC
S2140829F0002283F88D20A44B00221A70A14B93F86E
S214082A007E30002B48D0A14BB3F90020A04B1046CF
S214082A109847A04B1A68A04B114698470346002BC8
S214082A202AD0984B012283F872209C4B1B789B4A2D
S214082A300133DB00134407229A80924B93F87D30CB
S214082A400133DAB28F4B83F87D208F4B01221A7040
S214082A50934B07221A70914B1B781A468F4B1344D8
S214082A602E229A708F4B98470346FB71FB79002BF2
S214082A7012D08D4B98470FE0824B93F87230012B9B
S214082A800AD1804B042283F872207E4B002283F8FA
S214082A907D207D4B00221A707A4B93F89E30002BCF
S214082AA00AD1784B93F8AE30002B05D1754B93F8C6
S214082AB0BE30002B00F0FF807C4B00221A707B484B
S214082AC07B4B98470346FB71FB79002B01D0764B6E
S214082AD09847764B1B780A2B49D00B2B00F08A8038
S214082AE0092B40F0E880714B1B78664A1B0113449B
S214082AF0023301221A70634B042283F8A220614B2A
S214082B00042283F8B220654B1B781846674B1B785F
S214082B1099B2624A431CDB0013440A469A80634B08
S214082B201B7858491A010A440D3212780132D1B27C
S214082B30544A1B0113440D330A461A70524B01229D
S214082B401A705A4B1A78564B1A70544B1B781A46FA
S214082B50524B13442E229A70524B98470346FB71E9
S214082B60FB79002B00F089804F4B984785E04F4B48
S214082B701B78444A1B011344023301221A70414B46
S214082B80042283F892203F4B042283F8B220434B5A
S214082B901B781846454B1B7899B2404A431CDB0005
S214082BA013440A469A80414B1B7836491A010A4450
S214082BB00D3212780132D1B2324A1B0113440D335A
S214082BC00A461A70304B01221A70384B1A78344B62
S214082BD01A70324B1B781A46304B13442E229A70C2
S214082BE0304B98470346FB71FB79002B47D02E4B9A
S214082BF0984744E02D4B1B78224A1B0113440233A6
S214082C0001221A701F4B042283F892201D4B0422BF
S214082C1083F8A220214B1B781846244B1B7899B2C0
S214082C201E4A431CDB0013440A469A801F4B1B7837
S214082C3014491A010A440D3212780132D1B2114AE7
S214082C401B0113440D330A461A700F4B01221A70E3
S214082C50164B1A78124B1A70104B1B781A460F4BE5
S214082C6013442E229A700F4B98470346FB71FB7944
S214082C70002B1FD00C4B98471CE000BF1BE000BF82
S214082C8019E000BF341E0720A91807200C230720C8
S214082C90FD860A00D01807201D8B0A00F824072096
S214082CA0082307202D2E0800858E0800A818072060
S214082CB0C132080000BF514B1B78002B00F09980EA
S214082CC04F4B93F8CE30002B0AD14D4B93F8DE309D
S214082CD0002B05D14A4B93F8EE30002B00F0898084
S214082CE0484BB3F84A301A46474B1B689A420CD0F2
S214082CF0464B00221A60464B1B680133444A136051
S214082D00444B1B680133434A1360404B1B68282B0F
S214082D1032D93B4B93F8C230012B2DD0384B0122C9
S214082D2083F8C2203C4B1B783B4A0133DB00134434
S214082D300C229A80324B93F8CD300133DAB2304BFE
S214082D4083F8CD202E4B042283F8C220334B012271
S214082D501A70334B0C221A702F4B1B781A462E4BC0
S214082D6013442D229A702F4B98470346FB71FB7924
S214082D70002B01D02C4B9847254B1B68022B32D9C9
S214082D801F4B93F8E230012B2DD01D4B012283F800
S214082D90E220214B1B78204A0133DB0013440E2225
S214082DA09A80174B93F8ED300133DAB2144B83F858
S214082DB0ED20134B042283F8E220184B01221A70E8
S214082DC0174B0E221A70144B1B781A46124B1344D4
S214082DD02D229A70134B98470346FB71FB79002BFC
S214082DE001D0114B9847074BB3F84A301A46064BA2
S214082DF01A60002318460837BD4680BD491B0720C1
S214082E00341E072048240720981807209C180720F7
S214082E10A0180720A4180720F8240720A9180720B8
S214082E20082307202D2E0800858E080080B400AFE2
S214082E300A4B1B78002B0CD0094B1B78092B08D89B
S214082E40074B01225A70064B1B780133DAB2044B43
S214082E501A7000231846BD4680BC7047A91807207C
S214082E60F824072080B400AF0A4B1B78002B0CD040
S214082E70094B1B78092B08D8074B01225A70064BBA
S214082E801B780133DAB2044B1A7000231846BD4685
S214082E9080BC7047A91807205027072080B485B043
S214082EA000AFBA607B600346FB730B46BB73FB7BC5
S214082EB0104A1B0113440133BA7B1A70FB7B0D4A78
S214082EC01B01134408337A681A60FB7B094A1B0106
S214082ED013440433BA681A60FB7B064A1B01134482
S214082EE00C333A7E1A70002318461437BD4680BC49
S214082EF0704700BF341E072080B584B000AF034675
S214082F000A46FB711346BB710023FB73FB79002B43
S214082F1059D0FB794C2B56D8FB793D2B05D0FB793D
S214082F203E2B02D0FB793C2B14D1FB792C4A1B0193
S214082F3013440E3301221A70FB79294A1B011344E5
S214082F40023302221A70FB79254A1B0113440D33FB
S214082F5000221A70234B1B78002B36D0FB79204AA8
S214082F601B011344FA791A70BB79002B15D0FB792C
S214082F701B4A1B0113440E3301221A70FB79184AA8
S214082F801B011344023302221A70FB79144A1B01F0
S214082F9013440D3300221A7017E0FB79104A1B0100
S214082FA013440E3300221A70FB790D4A1B01134492
S214082FB0023304221A70FB79094A1B0113440D33A5
S214082FC000221A7001E00423FB73FB7B002B01D060
S214082FD0054B9847FB7B18461037BD4680BD00BF9B
S214082FE0341E0720EC0A0720858E080080B485B0BA
S214082FF000AF0346FB710023FB73FB79002B0CD054
S214083000FB794C2B09D8FB79084A1B011344023379
S21408301002221A700023FB7301E00423FB73FB7B78
S21408302018461437BD4680BC704700BF341E0720BC
S21408303080B500AF204B93F8CE33002B39D01F4B0A
S2140830409B8B012B28D11E4BB3F90030002B23D1C4
S214083050194B012283F8C2231A4B1B78194A0133ED
S214083060DB0013443C229A80134B93F8CD3301338C
S214083070DAB2114B83F8CD23134B01221A70134B87
S2140830803C221A700F4B1B781A460E4B13442F22FD
S2140830909A700F4B984707E0074B042283F8C22321
S2140830A0054B002283F8CD23044B9B8B1AB2044BA6
S2140830B01A8000BF184680BD341E07204824072003
S2140830C0AA18072050270720A91807200823072032
S2140830D0652E080080B584B000AF03463960FB71E2
S2140830E00023FB73FB79002B1CD0FB794C2B19D8DB
S2140830F0FB79124A1B01134402331B78012B07D0B5
S214083100FB790E4A1B01134402331B78032B03D1A9
S2140831103B6801221A7002E03B6800221A700023FE
S214083120FB7301E00423FB73FB7B002B01D0044BED
S2140831309847FB7B18461037BD4680BD341E0720CF
S214083140858E080080B584B000AF03460A46FB713A
S2140831501346BB710023FB73FB79002B69D0FB7900
S2140831604C2B66D8FB79394A1B0113440E331B785F
S214083170002B5BD0BB79002B3FD0FB79334A1B0171
S2140831801344023301221A70314B1B78FA7991B234
S2140831902F4A0133DB0013440A469A80FB792B49F1
S2140831A01A010A440D3212780132D1B2274A1B019D
S2140831B013440D330A461A70264B01221A70264A03
S2140831C0FB791370FB793C2B0AD1214B1B781A46E6
S2140831D01F4B13442D229A70204B00221A7009E0C8
S2140831E01E4B00221A701A4B1B781A46184B1344AB
S2140831F02E229A701A4B984718E0FB79134A1B013F
S214083200134402331B78012B10D1FB790F4A1B019C
S2140832101344023304221A70FB790C4A1B01134428
S2140832200D3300221A700B4B00221A700023FB7312
S21408323001E00423FB73FB7B002B01D0094B984766
S214083240002318461037BD4680BD00BF341E072031
S214083250F8240720A918072008230720AC180720F9
S2140832602D2E0800858E080080B483B000AF00239A
S214083270FB710F4B1B8801339AB20D4B1A800D4B0E
S21408328000221A600C4B1B6801330B4A1360084B6C
S2140832901B88142B05D9094B00221A60044B002200
S2140832A01A80002318460C37BD4680BC704700BFFE
S2140832B0DC180720A01807209C180720A418072049
S2140832C080B483B000AF78603B4B1B881A46134621
S2140832D0DB001344394A528F1344394A82FB0312DF
S2140832E09210DB17D31A9AB2334B1A80354B1B78D9
S2140832F0032B5BD801A252F823F000BF0D33080059
S214083300433308000D3308006F3308002A4B1B8828
S214083310322B0AD9284B1B88B3F5FA6F05D27B687F
S2140833200A221A70274B01221A70234B1B88B3F502
S214083330FA6F36D97B680B221A70224B03221A7052
S2140833402FE01D4B1B88B3F5FA6F05D97B680B2257
S2140833501A701C4B03221A70174B1B88312B22D865
S2140833607B6809221A70174B02221A701BE0124B50
S2140833701B88322B0AD9104B1B88B3F5FA6F05D277
S2140833807B680A221A700F4B01221A700A4B1B8898
S214083390312B0AD87B6809221A700A4B02221A7047
S2140833A003E000BF02E000BF00E000BF00231846AD
S2140833B00C37BD4680BC7047DE1807204824072017
S2140833C067666666E018072080B584B000AF0346D7
S2140833D0FB710023FB73FB79043B0C2B00F2AA80DD
S2140833E001A252F823F000BF1D340800AF340800CD
S2140833F035350800353508003535080035350800F8
S214083400353508007F34080035350800D134080003
S214083410353508001B350800E534080007209A4BA8
S21408342098470346FB734FF448710220974B98471A
S21408343040F24C410120954B984701211A20944BA5
S2140834409847944B1B78012B11D115208E4B984723
S2140834500346FB73904B1B78012B08D18F4B98477C
S21408346040F6AC508E4B984701208E4B98478E4BB3
S2140834701A788E4B1A708C4B02221A705AE08A4BB6
S2140834801B78002B55D107207F4B98470346FB73C4
S214083490864B1B781A46864B9B5C18467A4B984791
S2140834A00346FB73814B1A787F4B1A7041E0814BB9
S2140834B000221A60804B00221A6000211A20744BE2
S2140834C098471120704B9847774B00221A7031E0C6
S2140834D07A4B00221A80744B00221A70764B002210
S2140834E01A6027E00520684B98470346FB734FF49D
S2140834F048710220654B984740F24C410120634BC7
S21408350098476F4B31221A806D4B1B8818466D4BB7
S2140835109847654B0C221A700CE0694B31221A80CA
S214083520674B1B881846674B98475F4B0C221A70E8
S21408353000E000BF5C4B1B78152B00F2B88501A293
S21408354052F823F0AF400800AF4008009D35080049
S21408355057360800CB390800FF3908001B3A080020
S2140835604F3A08006B3A0800913A0800AD3A08004E
S214083570E13A0800FD3A08003D3B0800833D080094
S214083580B73D080027400800AF4008006B40080019
S214083590AF400800AF400800AF400800FB79013B89
S2140835A0072B4CD801A252F823F000BFCD350800EF
S2140835B0D53508003F3608003F3608003F36080075
S2140835C0F33508003F360800193608003E4B01223E
S2140835D01A703EE03C4B1B78002B33D0324B1A78DF
S2140835E0324B1A70304B03221A70374B00221A706F
S2140835F028E0324B00221A800520234B98470346C2
S214083600FB73FB7B002B20D1274B1A78274B1A70AD
S214083610254B10221A7018E0284B00221A80062024
S214083620194B98470346FB73FB7B002B10D11E4BA8
S2140836301A781E4B1A701C4B12221A7008E000BF2C
S21408364000F036BD00BF00F033BD00BF00F030BD4F
S21408365000BF00F02DBDFB79013B072B00F2AD81C2
S21408366001A252F823F000BFBB390800CD36080087
S214083670BB390800BB390800BB39080011390800F7
S214083680BB3908009539080019BA0900D1B80900ED
S214083690F92E08002A1D07203F1B072031B809000D
S2140836A039B9090039980800E1180720E2180720F8
S2140836B008010720F4180720F8180720E61807203E
S2140836C0EA18072015BD0900E31807209A4B1B784F
S2140836D0012B5BD10023BB813123BB81BB891846F4
S2140836E0964B98474FF448710220954B984740F2FE
S2140836F04C410120924B9847924BB3F900309AB24E
S214083700013292B211B28F4A1180B3F5617F38DD6B
S2140837108D4B00221A808B4B00221A808B4B9847C1
S2140837203123BB81BB891846844B98474FF44871B0
S2140837300220834B984740F24C410120804B984723
S2140837400520834B98470346FB731320814B984705
S2140837500346FB735120804B98470346FB73FB7B5D
S214083760002B0ED101211A207C4B98477C4B1A78E7
S2140837707C4B1A707A4B0C221A70794B1A78794B54
S2140837801A7001211A20754B984718E16E4BB3F949
S21408379000309AB2013292B211B26B4A1180B3F578
S2140837A0D27F40F30C81704B00221A60624B1B7864
S2140837B0012B0DD1644B00221A804FF44871022069
S2140837C05F4B984740F24C4101205D4B984765E0B7
S2140837D05D4B00221A80654B1B78012B5ED14FF497
S2140837E048710220564B984740F24C410120544BF2
S2140837F0984700211A20594B98475D4B31221A806A
S2140838005B4B1B8818464D4B98475A4B98474FF4C6
S2140838107A60594B98470120584B984758490520D5
S214083820584B98470220584B98470320564B9847C2
S21408383000210220554B98476420554B98474FF473
S2140838407A510120514B9847C820514B98474FF45E
S214083850FA5101204D4B98474FF416704C4B984739
S21408386041F288310120494B98474FF44870484B3D
S214083870984740F6C4110120444B98476420444BAF
S21408388098474FF4FA610120404B98476420404B14
S21408389098474FF4FA7101203C4B9847344B312235
S2140838A01A80334B1B881846244B98474FF44871A8
S2140838B00220234B984740F24C410120204B984762
S2140838C00520234B98470346FB731320214B984744
S2140838D00346FB7314201F4B984704201D4B98473C
S2140838E051201D4B98470346FB73FB7B002B66D184
S2140838F001211A20194B9847194B1A78194B1A7038
S214083900174B0C221A70164B1A78164B1A7056E07C
S2140839100D4B00221A8005200D4B98470346FB7373
S214083920FB7B002B4DD10E4B1A780E4B1A700C4BA6
S21408393010221A7045E000BF2A1D072015BD090091
S214083940D1B80900E8180720E6180720E5BC0900E2
S21408395019BA090079B80900BDC00800F92E080090
S214083960E1180720E2180720F8180720D51D0720B9
S214083970EA18072031B8090039B90900399808004B
S2140839800000A042AD97080059B8090089770900D9
S21408399051480900994B00221A800620984B9847F0
S2140839A00346FB73FB7B002B0DD1964B1A78964B80
S2140839B01A70944B12221A7005E000BF78E300BF15
S2140839C076E300BF74E300BF72E3FB79012B02D0F5
S2140839D0022B04D012E08D4B01221A700EE08B4B9E
S2140839E01B78002B09D0874B1A78874B1A70854BA3
S2140839F005221A70854B00221A7000BF58E3FB791F
S214083A00022B04D0032B04D0012B04D004E000BF03
S214083A104EE300BF4CE300BF4AE3FB79012B02D01C
S214083A20022B04D012E0794B01221A700EE0774B75
S214083A301B78002B09D0734B1A78734B1A70714B8E
S214083A4007221A70714B00221A7000BF30E3FB7908
S214083A50022B04D0032B04D0012B04D004E000BFB3
S214083A6026E300BF24E300BF22E3FB79012B02D044
S214083A70022B0BD00BE0634B1A78634B1A70614B22
S214083A8009221A70614B00221A7000E000BF0FE38B
S214083A90FB79022B04D0032B04D0012B04D004E0BE
S214083AA000BF05E300BF03E300BF01E3FB79012B7A
S214083AB002D0022B04D012E0544B01221A700EE0FA
S214083AC0524B1B78002B09D04E4B1A784E4B1A7067
S214083AD04C4B0B221A704D4B00221A7000BFE7E2BF
S214083AE0FB79022B04D0032B04D0012B04D004E06E
S214083AF000BFDDE200BFDBE200BFD9E2FB79002BA6
S214083B0001D0022B19E0424BB3F900309BB20133C7
S214083B109BB21AB23E4B1A803E4B1B8801339AB2B0
S214083B203C4B1A803C4B00221A80364B1A78364B90
S214083B301A70344B0D221A7000BFB9E2FB79032BBA
S214083B4000F2198101A252F823F000BF5D3B08007D
S214083B50773D0800773D0800A73B08002C4BB3F9D3
S214083B6000309BB201339BB21AB2294B1A80294BFC
S214083B701B8801339AB2274B1A80264B1B882A2BA0
S214083B8008D1264B5B8F002B40F0F7801320244B80
S214083B909847F2E01F4B1B882E2B40F0EE80132030
S214083BA0204B9847E9E0204B01221A701F4B002251
S214083BB01A60174BB3F900309AB21C4B1A801B4B8D
S214083BC016229A70124BB3F900309AB2184B1A8024
S214083BD0184B1B78012B40F0A480174B1B68B3F5D5
S214083BE0C87F00F09B80B3F5C87F27D8C82B00F0A5
S214083BF08B80B3F5967F67D093E000BFE618072062
S214083C0019BA0900E1180720E2180720E318072068
S214083C10FE180720FC180720E41807204824072069
S214083C2059B8090079B809003C1B07200019072075
S214083C3004190720031A0720041A0720B3F5FA7F89
S214083C4022D0B3F5487F6CD19D4BB3F90030372BA3
S214083C5004DC9B4BB3F900302C2B10DC994B1B680B
S214083C600133984A1360974B1B68032B0BDD012121
S214083C701A20954B9847934B00221A6003E0914B05
S214083C8000221A604DE04CE08D4BB3F900304D2B06
S214083C9004DC8B4BB3F90030422B10DC894B1B68D5
S214083CA00133884A1360874B1B68032B0BDD012101
S214083CB01A20854B9847834B00221A6003E0814BF5
S214083CC000221A602DE02CE07D4BB3F900307A2BE9
S214083CD004DC7B4BB3F900306D2B10DC794B1B688A
S214083CE00133784A1360774B1B68032B0BDD0121E1
S214083CF01A20754B9847734B00221A6003E0714BE5
S214083D0000221A600DE00CE06D4BB3F90030BE2BB4
S214083D1006DD01211A206C4B984701E000BF00E041
S214083D2000BF0620694B98470346FB73684B002282
S214083D301A80042267493720674B9847022267494A
S214083D404920654B9847664B1B680133644A1360E5
S214083D50644B1B680133634A1360FB7B002B0ED150
S214083D60614B1A78614B1A705F4B0E221A70544BCF
S214083D7000221A8003E000BF9AE100BF98E100BF66
S214083D8096E1FB79002B01D0022B13E04C4BB3F9DC
S214083D9000309BB201339BB21AB2494B1A80544B7F
S214083DA000221A80504B1A78504B1A704E4B0F222E
S214083DB01A7000BF7CE1FB79032B00F22E8101A26A
S214083DC052F823F0D53D08001B4008001B400800A9
S214083DD01F3E08003A4BB3F900309BB201339BB242
S214083DE01AB2374B1A803A4B1B8801339AB2384BB3
S214083DF01A80374B1B882A2B08D13E4B5B8F002B2B
S214083E0040F00D8113203C4B984708E1304B1B8847
S214083E102E2B40F004811320384B9847FFE0384B90
S214083E2001221A702B4B00221A60254BB3F900307A
S214083E309AB2284B1A80274B15229A70204BB3F952
S214083E4000309AB2254B1A802E4B1B78012B40F077
S214083E50BA802D4B1B68B3F5C87F00F0B180B3F568
S214083E60C87F06D8C82B00F09380B3F5967F6FD02E
S214083E70A9E0B3F5FA7F4BD0B3F5487F40F0A380AE
S214083E800F4BB3F90030372B04DC0D4BB3F9003079
S214083E902C2B10DC1D4B1B6801331C4A13601B4B74
S214083EA01B68032B0BDD01211A20074B9847174B7D
S214083EB000221A6003E0154B00221A6083E082E0B5
S214083EC0FE180720EC1807204531080019BA090023
S214083ED0FC1807200019072079D6090004190720BE
S214083EE0F4180720F8180720E1180720E21807201A
S214083EF0E41807204824072059B8090079B80900AB
S214083F003C1B0720031A0720041A0720F01807206E
S214083F106A4BB3F900304D2B04DC684BB3F900301C
S214083F20422B10DC664B1B680133654A1360644BF2
S214083F301B68032B0BDD01211A20624B9847604B48
S214083F4000221A6003E05E4B00221A603BE03AE06B
S214083F505A4BB3F900307A2B04DC584BB3F90030CF
S214083F606D2B10DC564B1B680133554A1360544BB7
S214083F701B68032B0BDD01211A20524B9847504B28
S214083F8000221A6003E04E4B00221A601BE01AE07B
S214083F904A4BB3F90030BE2B14DD4B4B9847042030
S214083FA04A4B984732204A4B98470420494B984733
S214083FB03220474B984701211A20424B984701E088
S214083FC000BF00E000BF0520434B98470346FB733D
S214083FD0424B00221A80042241493720414B984719
S214083FE00222414949203F4B9847404B1B68013302
S214083FF03E4A13603E4B1B6801333D4A1360FB7B09
S214084000002B0ED13B4B1A783B4B1A702B4B0022D9
S2140840101A80384B0C221A7003E000BF48E000BF35
S21408402046E000BF44E0FB79042B0BD0072B00D0FA
S2140840301AE00520284B98470346FB732D4B1122A0
S2140840401A7011E00720244B98470346FB73294B48
S2140840501A78294B1A70274B02221A7013201B4B0A
S21408406098470346FB7300BF22E0FB79042B0BD06E
S214084070092B00D01AE00620174B98470346FB7317
S2140840801C4B13221A7011E00720134B984703465F
S214084090FB73184B1A78184B1A7013200B4B98475B
S2140840A00346FB73134B02221A7000BF00E000BFE2
S2140840B0002318461037BD4680BD00BFFE180720EF
S2140840C0F01807204531080095BA090059B80900C4
S2140840D05148090079B8090019BA0900FC180720E0
S2140840E00019072079D6090004190720F4180720B4
S2140840F0F8180720E1180720E218072090B484B0C3
S21408410000AF78600023FB6082E04549FA681346F2
S2140841105B0013445B000B441B881BB21A467B6883
S2140841209A420DD13E49FA6813465B0013445B0079
S2140841300B4404331B881BB21A463A4B1A606BE0D2
S2140841403749FA6813465B0013445B000B441B8828
S2140841501BB21A467B689A4257D2FB685A1C3049EB
S21408416013465B0013445B000B441B881BB21A46BD
S2140841707B689A4249D92A49FA6813465B00134471
S2140841805B000B441B881BB21A467B68991AFB68AF
S2140841905A1C234813465B0013445B00034404334D
S2140841A01B881BB21C461E48FA6813465B0013445D
S2140841B05B00034404331B881BB2E31A03FB01F1BC
S2140841C0FB685A1C164813465B0013445B000344FE
S2140841D01B881BB21C461248FA6813465B00134439
S2140841E05B0003441B881BB2E31AB1FBF3F10C48CF
S2140841F0FA6813465B0013445B00034404331B88C9
S2140842001BB20B44074A136006E0FB680133FB60E9
S214084210FB68132B7FF779AF1037BD4690BC704705
S21408422050040720E019072090B585B000AF7860E5
S2140842300023FB600023FB6081E11A49FA681346F5
S2140842405B0013449B000B441B889BB21A467B6892
S2140842509A422FD11349FA6813465B0013449B0011
S2140842600B4402331B889BB21A460F4B1A600D4943
S214084270FA6813465B0013449B000B4404331B6820
S2140842801A460A4B1A600749FA6813465B00134435
S2140842909B000B4408331B681A46054B1A60024BF2
S2140842A01B6850E1200107207C2307208423072071
S2140842B080230720A649FA6813465B0013449B0030
S2140842C00B441B889BB21A467B689A4280F034815E
S2140842D0FB685A1C9E4913465B0013449B000B441C
S2140842E01B889BB21A467B689A4240F22581FB6877
S2140842F05A1C974913465B0013449B000B44023331
S2140843001B889BB218469249FA6813465B0013440A
S2140843109B000B4402331B889BB2C11AFB685A1CCD
S2140843208B4813465B0013449B0003441B889BB2D0
S2140843301C468748FA6813465B0013449B000344F0
S2140843401B889BB2E31A91FBF3F2824B1046984700
S2140843500346BB607E49FA6813465B0013449B001D
S2140843600B441B889BB21A467B689A1A7A4B1046EF
S21408437098470246794BB9681046984703461C4644
S2140843807349FA6813465B0013449B000B440233D8
S2140843901B889BB21A466F4B104698470246704BCE
S2140843A011462046984703461A466E4B10469847CD
S2140843B002466D4B1A60FB685A1C654913465B003B
S2140843C013449B000B44043319686148FA68134683
S2140843D05B0013449B00034404331B68C91AFB683C
S2140843E05A1C5B4813465B0013449B0003441B8817
S2140843F09BB21C465648FA6813465B0013449B005B
S21408440003441B889BB2E31A91FBF3F2514B104608
S21408441098470346BB604E49FA6813465B00134448
S2140844209B000B441B889BB21A467B689A1A4A4B19
S214084430104698470246494BB968104698470346BF
S2140844401C464349FA6813465B0013449B000B441A
S21408445004331A683F4B104698470246404B1146AD
S2140844602046984703461A463E4B1046984702464B
S2140844703E4B1A60FB685A1C354913465B001344CA
S2140844809B000B44083319683148FA6813465B00EA
S21408449013449B00034408331B68C91AFB685A1C5C
S2140844A02B4813465B0013449B0003441B889BB2AF
S2140844B01C462748FA6813465B0013449B000344CF
S2140844C01B889BB2E31A91FBF3F2224B10469847DF
S2140844D00346BB601E49FA6813465B0013449B00FC
S2140844E00B441B889BB21A467B689A1A1A4B1046CE
S2140844F098470246194BB9681046984703461C4623
S2140845001349FA6813465B0013449B000B440833B0
S2140845101A68104B104698470246114B114620461B
S214084520984703461A460F4B104698470246104BC4
S2140845301A600D4B1B6806E0FB680133FB60FB68DE
S214084540092B7FF77AAE18461437BD4690BD00BFD4
S21408455020010720FD860A00F5860A00A5870A00BE
S21408456095850A007D8B0A007C2307208423072074
S2140845708023072090B587B000AF78604FF000031F
S2140845803B617B683B614FF00003FB6000237B6167
S2140845908FE04C4A7B6932F823309BB21A464A4B66
S2140845A0104698470246494B3969104698470346CD
S2140845B0002B0CD0434A7B699B0013445B889AB255
S2140845C0434B104698470246424B1A606EE03D4AF7
S2140845D07B6932F823309BB21A463B4B1046984705
S2140845E002463D4B3969104698470346002B5DD076
S2140845F07B690133334A32F823309BB21A46324B72
S214084600104698470246354B396910469847034680
S214084610002B4BD07B6901332A4A9B0013445B88E6
S2140846209BB21946274A7B699B0013445B889BB25A
S214084630CA1A7B690133234931F823309BB21846DE
S21408464020497B6931F823309BB2C31A92FBF3F2F8
S2140846501D4B104698470346FB601A4A7B6932F89A
S21408466023309BB21A46184B1046984702461C4BF6
S21408467011463869984703461A461A4BF968104691
S214084680984703461C460F4A7B699B0013445B8881
S2140846909BB21A460C4B104698470246124B1146D8
S2140846A02046984703461A460A4B1A607B69013328
S2140846B07B617B69312B7FF76CAF00BF1C37BD462B
S2140846C090BD00BF18190720FD860A00CD8A0A008B
S2140846D0F5860A0010190720E18A0A001D8B0A00D1
S2140846E091850A00A5870A0095850A0090B587B0C7
S2140846F000AF0346FB80B7F90620224B10469847C2
S21408470003463B610023FB82D6E1FA8A1E4913461C
S2140847105B0013449B000B441B889BB21A46194B3C
S214084720104698470246194B39691046984703467B
S214084730002B33D0FA8A144913465B0013449B00B7
S2140847400B4402331B889BB2BB60114ABB681360DC
S214084750FA8A0D4913465B0013449B000B44043346
S2140847601B681A460B4B1A60FA8A074913465B0001
S21408477013449B000B4408331B681A46064B1A6002
S2140847809EE100BFFD860A0078030720CD8A0A004E
S214084790141907208C23072088230720FA8AA7499C
S2140847A013465B0013449B000B441B889BB21A46B7
S2140847B0A34B104698470246A24B396910469847BD
S2140847C00346002B00F05C81FB8A5A1C9B49134663
S2140847D05B0013449B000B441B889BB21A46984BFD
S2140847E0104698470246984B39691046984703463C
S2140847F0002B00F04581FB8A5A1C904913465B0043
S21408480013449B000B4402331B889BB21846FA8A53
S2140848108A4913465B0013449B000B4402331B88EB
S2140848209BB2C11AFB8A5A1C844813465B00134481
S2140848309B0003441B889BB21C46FA8A7F48134693
S2140848405B0013449B0003441B889BB2E31A91FB4E
S214084850F3F27B4B104698470346FB60FA8A774983
S21408486013465B0013449B000B441B889BB21A46F6
S214084870734B104698470246744B1146386998475A
S21408488003461A46724BF9681046984703461C4674
S214084890FA8A6A4913465B0013449B000B440233AA
S2140848A01B889BB21A46664B104698470246694BC9
S2140848B011462046984703461A46674B10469847BF
S2140848C00246664B1A60FB8A5A1C5C4913465B0014
S2140848D013449B000B4404331968FA8A5748134656
S2140848E05B0013449B00034404331B68C91AFB8A05
S2140848F05A1C524813465B0013449B0003441B880B
S2140849009BB21C46FA8A4D4813465B0013449B002C
S21408491003441B889BB2E31A91FBF3F2484B1046FC
S21408492098470346FB60FA8A444913465B001344DB
S2140849309B000B441B889BB21A46414B104698476F
S2140849400246424B11463869984703461A46404B7A
S214084950F9681046984703461C46FA8A37491346AC
S2140849605B0013449B000B4404331A68344B104610
S21408497098470246374B11462046984703461A463C
S214084980354B104698470246354B1A60FB8A5A1C28
S2140849902A4913465B0013449B000B4408331968E6
S2140849A0FA8A264813465B0013449B0003440833E0
S2140849B01B68C91AFB8A5A1C204813465B00134416
S2140849C09B0003441B889BB21C46FA8A1B48134666
S2140849D05B0013449B0003441B889BB2E31A91FBBD
S2140849E0F3F2174B104698470346FB60FA8A1349BA
S2140849F013465B0013449B000B441B889BB21A4665
S214084A000F4B104698470246104B11463869984790
S214084A1003461A460E4BF9681046984703461C4646
S214084A20FA8A064913465B0013449B000B44083376
S214084A301A68034B1046984714E000BF780307200F
S214084A40FD860A00E18A0A001D8B0A0091850A0085
S214084A50A5870A0095850A007D8B0A001419072089
S214084A608C2307200246184B1146204698470346D3
S214084A701A46164B104698470246154B1A601FE012
S214084A80FA8A144913465B0013449B000B441B88A0
S214084A909BB21A46104B1046984702460F4B396988
S214084AA0104698470346002B03D00D4B0A221A607F
S214084AB006E0FB8A0133FB82FB8A112B7FF625AEC4
S214084AC000BF1C37BD4690BD95850A007D8B0A0041
S214084AD08823072078030720FD860A001D8B0A0016
S214084AE01419072080B400AF224B4FF4FA725A61AB
S214084AF0204B4FF4B9729A611E4B8722DA621D4B1F
S214084B004FF4C872DA631B4B40F277121A66194BD9
S214084B1040F26D125A66174B8D22C3F88C20154B3F
S214084B208B22C3F88820134B4FF4AF62C3F8942047
S214084B30104B4FF46172C3F890200E4B4FF4AF62DF
S214084B405A670C4B4FF461721A670A4B0022DA61F7
S214084B50084B00229A63074B00225A63054BF02243
S214084B605A65044B3C225A6400231846BD4680BC4E
S214084B70704700BF3029072080B592B000AF0346C3
S214084B80FB71042387F84730592387F8463007F126
S214084B900C03322200211846CD4B9847FB790E2B82
S214084BA007D03B2B00F075840D2B00F07E8300F0B9
S214084BB075BCC84B1B7E002B00F06D84C54B1B795B
S214084BC0013B212B00F26D8301A252F823F000BFAF
S214084BD0594C08008F4C0800334D0800594D080002
S214084BE0A3520800A3520800A3520800A3520800C4
S214084BF0A3520800A3520800A3520800A3520800B4
S214084C00A3520800A3520800A3520800A3520800A3
S214084C10A3520800C54D0800A3520800A352080076
S214084C20A3520800A3520800A3520800A352080083
S214084C30A3520800A3520800A3520800A352080073
S214084C40A3520800C54C0800A3520800EB4C080005
S214084C50114D08008F4D0800162387F846300123AB
S214084C603B7307F10C030133194601209A4B98470A
S214084C70034687F8473007F10C0197F846300222BA
S214084C801846964B9847034687F847300CE3162392
S214084C9087F8463002233B7307F10C0301331946A5
S214084CA002208D4B9847034687F8473007F10C01DA
S214084CB097F8463002221846884B9847034687F8E6
S214084CC04730F1E2162387F8463020233B7300234B
S214084CD07B7307F10C0197F84630022218467F4B83
S214084CE09847034687F84730DEE2162387F84630AB
S214084CF021233B7300237B7307F10C0197F846309A
S214084D0002221846754B9847034687F84730CBE289
S214084D10162387F8463023233B7307F10C0197F8D0
S214084D204630022218466D4B9847034687F84730A8
S214084D30BAE2162387F8463003233B7300237B73B7
S214084D4007F10C0197F8463002221846634B98473D
S214084D50034687F84730A7E2162387F84630042329
S214084D603B7307F10C030133194604205A4B984746
S214084D70034687F8473007F10C0197F846300222B9
S214084D801846564B9847034687F847308CE2162352
S214084D9087F8463022233B7307F10C030133194684
S214084DA004204D4B9847034687F8473007F10C0117
S214084DB097F8463002221846484B9847034687F825
S214084DC0473071E2162387F8463012233B73414B6F
S214084DD05B79252B20D83F4B5B797B737B7B1A4608
S214084DE03F4B53F822303B6497F84030BB7397F834
S214084DF04130FB7397F842303B7497F843307B7426
S214084E0007F10C0197F8463006221846334B9847A8
S214084E10034687F8473046E22E4B5B792D2B00F287
S214084E2042822C4B5B797B732A4B5B79263B072B9C
S214084E3000F2358201A252F823F000BF5D4E08004A
S214084E405D4F08009F520800E54E0800CF4F080047
S214084E5029520800AF5108003F500800204B5B69F4
S214084E603B6497F84030BB7397F84130FB7397F86C
S214084E7042303B7497F843307B74194B9B693B640C
S214084E8097F84030BB7497F84130FB7497F8423077
S214084E903B7597F843307B75114BDB6A3B6497F894
S214084EA04030BB7597F84130FB7597F842303B7633
S214084EB097F843307B7607F10C0197F846300E22B8
S214084EC01846064B9847034687F84730E8E100BF80
S214084ED0F98C0A004426072091C1090079D60900F2
S214084EE030290720CE4BD3F888303B6497F84030FB
S214084EF0BB7397F84130FB7397F842303B7497F8CA
S214084F0043307B74C64BD3F88C303B6497F84030FC
S214084F10BB7497F84130FB7497F842303B7597F8A6
S214084F2043307B75BE4BD3F8A4303B6497F84030CB
S214084F30BB7597F84130FB7597F842303B7697F883
S214084F4043307B7607F10C0197F846300E22184658
S214084F50B44B9847034687F84730A1E1B04B5B6EE1
S214084F603B6497F84030BB7397F84130FB7397F86B
S214084F7042303B7497F843307B74A94B1B6E3B64F6
S214084F8097F84030BB7497F84130FB7497F8423076
S214084F903B7597F843307B75A14B9B693B6497F844
S214084FA04030BB7597F84130FB7597F842303B7632
S214084FB097F843307B7607F10C0197F846300E22B7
S214084FC01846984B9847034687F8473068E1944B4D
S214084FD09B6E3B6497F84030BB7397F84130FB7381
S214084FE097F842303B7497F843307B748C4BDB6EF3
S214084FF03B6497F84030BB7497F84130FB7497F8D9
S21408500042303B7597F843307B75C8233B6497F866
S2140850104030BB7597F84130FB7597F842303B76C1
S21408502097F843307B7607F10C0197F846300E2246
S21408503018467C4B9847034687F8473030E1784B4C
S214085040DB6A3B6497F84030BB7397F84130FB73D4
S21408505097F842303B7497F843307B74704B9B69E3
S2140850603B6497F84030BB7497F84130FB7497F868
S21408507042303B7597F843307B75694B5B693B64F8
S21408508097F84030BB7597F84130FB7597F8423073
S2140850903B7697F843307B76614B5B6B3B6497F8BF
S2140850A04030BB7697F84130FB7697F842303B772E
S2140850B097F843307B775A4B1B6B3B6497F8403026
S2140850C0BB7797F84130FB7797F8423087F820305F
S2140850D097F8433087F82130514B1B6D3B6497F89F
S2140850E0403087F8223097F8413087F8233097F811
S2140850F0423087F8243097F8433087F82530484BF5
S214085100DB6D3B6497F8403087F8263097F84130D7
S21408511087F8273097F8423087F8283097F84330D2
S21408512087F829303E4B5B6D3B6497F8403087F82C
S2140851302A3097F8413087F82B3097F8423087F8AE
S2140851402C3097F8433087F82D30354BDB693B64B5
S21408515097F8403087F82E3097F8413087F82F3088
S21408516097F8423087F8303097F8433087F8313070
S2140851702B4B9B6B3B6497F8403087F8323097F898
S214085180413087F8333097F8423087F8343097F84C
S214085190433087F8353007F10C0197F846302A2255
S2140851A01846204B9847034687F8473078E01C4B4C
S2140851B01B6F3B6497F84030BB7397F84130FB731E
S2140851C097F842303B7497F843307B74144B5B6F08
S2140851D03B6497F84030BB7497F84130FB7497F8F7
S2140851E042303B7597F843307B754FF4C8733B6481
S2140851F097F84030BB7597F84130FB7597F8423002
S2140852003B7697F843307B7607F10C0197F84630E3
S2140852100E221846034B9847034687F847303FE068
S2140852203029072079D609009F4BD3F890303B6485
S21408523097F84030BB7397F84130FB7397F84230C5
S2140852403B7497F843307B74974BD3F894303B64A1
S21408525097F84030BB7497F84130FB7497F84230A3
S2140852603B7597F843307B754FF4FA733B6497F8B1
S2140852704030BB7597F84130FB7597F842303B765F
S21408528097F843307B7607F10C0197F846300E22E4
S2140852901846864B9847034687F8473000E000BF15
S2140852A001E000BFF7E000BFF5E0814B1B7E002B56
S2140852B000F0F3807E4B1B79122B00D0E8E07C4B85
S2140852C05B79252B18D87A4B5B797B73784B9B795F
S2140852D087F84030764BDB7987F84130744B1B7A79
S2140852E087F84230724B5B7A87F843307B7B1946E7
S2140852F03B6C6D4A42F821306D4B5B79053B202BA1
S21408530000F2C48001A252F823F000BF91530800AF
S214085310995308008D5408008D5408008D540800D1
S2140853208D540800A1530800AF530800BF53080067
S214085330CF5308008D5408008D540800E953080020
S2140853408D5408008D5408008D540800F153080049
S2140853508D5408008D540800F953080009540800B5
S21408536019540800295408003954080049540800FC
S2140853708D5408008D5408008D5408008D5408007C
S21408538059540800635408006D5408007D540800FA
S2140853903B6C454A53617AE03B6C434A936176E03E
S2140853A03B6C414AD362434B00221A806FE03B6C49
S2140853B0414AA2FB0323DB083B4A136367E03B6CC6
S2140853C0394A5363002108203C4B98475FE03B6C02
S2140853D09BB25B009AB23A4B1A80394B1B880A3349
S2140853E09AB2374B1A8052E03B6C2F4A53644EE011
S2140853F03B6C2D4A53654AE03A6C324B1046984748
S2140854000246314B9A6442E03A6C2E4B1046984757
S21408541002462D4BDA643AE03A6C2A4B1046984717
S2140854200246294B5A6332E03A6C264B1046984798
S2140854300246254B1A632AE03A6C224B10469847D8
S2140854400246214B5A6122E03A6C1E4B104698479A
S21408545002461D4B1A611AE03B6C1AB21A4B1A80A8
S21408546015E03B6C1AB2184B5A8010E03A6C154B94
S214085470104698470246144BDA6008E03A6C114B1F
S214085480104698470246104B9A6000E000BF00BFDF
S21408549003E000BF02E000BF00E000BF002318469C
S2140854A04837BD4680BD00BF3029072079D6090099
S2140854B044260720781A0720CDCCCCCC897709005B
S2140854C0020B0720F5860A000C23072080B400AFDD
S2140854D02C4B00221A602C4B00221A602B4B002201
S2140854E01A602B4B00221A602A4B00221A602A4B9D
S2140854F000221A70294B00221A70294B00221A80A3
S214085500284B00221A80284B00221A80274B00229C
S2140855101A80274B00221A80264B00221A70264B28
S21408552001221A70254B00221A60254B00221A60A9
S214085530244B4FF000021A60234B4FF000021A600B
S214085540224B4FF000021A60214B4FF000021A60FF
S214085550204B4FF000021A601F4B4FF000021A60F3
S2140855601E4B4FF000021A601D4B4FF000021A60E7
S2140855701C4B4FF000021A6000231846BD4680BC3C
S214085580704700BFE8190720EC190720F019072014
S214085590F4190720F8190720FC190720FD19072019
S2140855A094230720FE190720001A072090230720B7
S2140855B096230720021A0720031A0720041A072032
S2140855C0301A0720081A07200C1A0720101A072076
S2140855D0141A0720181A07201C1A0720201A072052
S2140855E0241A0720281A072080B598B000AF03466B
S2140855F0FB71002387F84B30002387F85F300023C1
S21408560087F85E30002387F84A30002387F8493049
S2140856100023A7F85C3007F1400300221A605A609E
S214085620592387F85B30002387F83F300023A7F814
S214085630583007F12C0300221A601A7107F14B0242
S214085640FB7911461846B84B9847034687F85730F3
S21408565097F84B30113B4B2B00F20C8201A252F804
S21408566023F000BF755A0800755A080095570800B9
S214085670755A0800755A0800755A0800755A0800C1
S214085680755A0800755A0800755A0800755A0800B1
S214085690755A080059590800B3580800D758080022
S2140856A0B3570800F357080091580800A357080096
S2140856B0755A0800AD570800755A0800755A08004C
S2140856C0755A0800755A0800755A0800755A080071
S2140856D0755A0800755A0800755A0800755A080061
S2140856E0755A0800755A0800755A0800755A080051
S2140856F0755A0800755A0800755A0800755A080041
S214085700755A0800755A0800755A0800755A080030
S214085710755A0800755A0800755A0800755A080020
S214085720755A0800755A0800755A0800755A080010
S214085730755A0800755A0800755A0800755A080000
S214085740755A0800755A0800755A0800755A0800F0
S214085750755A0800755A0800755A0800755A0800E0
S214085760755A0800755A0800755A0800755A0800D0
S214085770755A0800755A0800755A0800755A0800C0
S214085780755A0800755A0800755A0800BF59080067
S2140857901B5A08000220654B9847034687F857307F
S2140857A073E100210720624B98476EE1614B9847EA
S2140857B06BE1614B1B7E002B00F05E815E4B1B7914
S2140857C087F828305C4B5B7987F829305A4B9B79E9
S2140857D087F82A30584BDB7987F82B303B8D1A46EA
S2140857E0564BDA61554BDB6919460620504B9847ED
S2140857F042E1514B1B7E002B00F040814E4B5B79FB
S21408580087F824304C4B9B7987F825304A4BDB7950
S21408581087F82630484B1B7A87F82730464B1B7983
S214085820012B0CD100210120414B98470021342040
S214085830434B984700213520414B98471EE13E4B85
S2140858401B79022B0CD100210420394B98470021E4
S21408585034203B4B984700213520394B98470DE1BB
S214085860354B1B79002B40F00981344BDB69194610
S2140858700B202F4B984701213420314B98470121A4
S21408588035202F4B984701214B202D4B9847F5E0A4
S214085890002134202A4B984700213520284B98476A
S2140858A000214B20264B984700210D20204B984777
S2140858B0EBE000210220234B984701210120204BD2
S2140858C09847034687F857301F4B00221A601F4B2D
